:1000000045C0E3C15EC05DC05CC05BC05AC059C0A2
:1000100058C057C021C455C054C053C052C051C06D
:1000200050C04FC04EC0040309041A037700770084
:1000300077002E006F0062006400650076002E00DD
:10004000610074001C034C006F00670069006300CE
:1000500041006E0061006C0079007A00650072005A
:1000600012011001FF000008C016DC0500010102AA
:10007000000109021900010100400A090400000101
:10008000000000000705810308000A0011241FBEBC
:10009000CFE5D4E0DEBFCDBF10E0A0E6B0E0EAEFF0
:1000A000F8E002C005900D92A436B107D9F711E02F
:1000B000A4E6B0E001C01D92A332B107E1F750D32E
:1000C0001AC49ECF85B7836085BF8BB780648BBF12
:1000D00083EC8093700008951F93DC01162F8091AC
:1000E000620084FF0AC08091700098E8892780939D
:1000F0007000912FE1E7F0E007C08AE5809362008D
:10010000F8CF8D91819391509923D9F781E790E0B1
:10011000612F57D11C5F109362001F9108950F93B8
:100120001F93CF93DF936091800016160CF0C0C030
:1001300080917D00CCE0D0E0C81BD109CC57DF4FC7
:10014000635080917C008D3209F095C08AE58093E0
:100150006100683009F0A2C09881892F807609F08B
:1001600077C010926E008981882381F49F7119F401
:1001700081E080936E0010926F008EE690E0909385
:100180007F0080937E0090E822E06EC0853021F4ED
:100190008A8180938100F6C08630E9F58B818130B9
:1001A00049F480E690E090937F0080937E0090EC8D
:1001B00022E15AC0823049F482E790E090937F00B8
:1001C00080937E0090EC29E14FC0833009F0DCC0C1
:1001D0008A81882349F486E290E090937F0080939F
:1001E0007E0090EC24E040C0813049F48AE290E047
:1001F00090937F0080937E0090EC2AE135C082309E
:1002000009F0C2C084E490E090937F0080937E0068
:1002100090EC2CE129C0883019F483E890E00AC002
:10022000893021F48A8180938300ACC08A3049F4FC
:100230008EE690E090937F0080937E0090E821E02E
:1002400013C08B3009F09EC083EC809370009AC07D
:10025000CE0162D2282F8F3F31F4888187FD2E8115
:10026000822F90E01FC090E88F818823D1F48E8187
:100270008217C0F016C08091640087FD0FC0CE01C8
:100280001DD28F3F21F48EE18093610004C088234A
:1002900011F090E004C090E08FEF04C090E880E09F
:1002A00001C0822F909364008093600010928000C0
:1002B0008091610084FF5BC0809160008F3F09F4F2
:1002C00056C0182F893008F018E0811B8093600019
:1002D0008091640080FD02C00BE401C003EC8F5FDD
:1002E0008093640087FF26C020917E0030917F00BC
:1002F00086FD05C0D901912FE6E6F0E011C0A6E623
:10030000B0E080E090E006C0F901E80FF91FE49149
:10031000ED9301961817C1F705C08D918193915007
:100320009923D9F7F901E10FF11DF0937F00E093D4
:100330007E0009C0112339F086E690E0612FA1D13B
:10034000182F893060F486E690E0612F3AD0912F23
:100350009C5F183041F08FEF8093600004C08FEFF6
:10036000809360009EE100936500909361009AE0A5
:1003700086B3837061F49150D9F710928100109286
:100380007B0005C090E801C090EC20E06DCFDF91CC
:10039000CF911F910F910895A82FB92F80E090E081
:1003A00041E050EA60956F5F58F42D9138EF822755
:1003B0009795879510F0842795273F5FC8F3F3CF73
:1003C0000895EADF8D939D930895CF93CFB7CF9390
:1003D000B09BFECFB09B09C0B09B07C0B09B05C0CF
:1003E000B09B03C0B09B01C0A3C0DF93C0917D0050
:1003F000DD27CC57DF4FB09B02C0DF91EBCF2F93AF
:100400000F931F9306B32FEF00FB20F94F933F93F9
:1004100016B34FEF012700FB21F93BE031C04E7FBF
:10042000012F16B3216028C0102F4D7F22600000DD
:1004300006B329C04B7F2460012F000016B32BC0E8
:1004400016B3477F28602AC04F7E06B320612CC0B8
:100450004F7D16B320622FC04F7B06B3206432C09D
:10046000422706B349934FEF0000102710FB20F9F5
:1004700016B31370C9F1297F91F2012700FB21F90E
:1004800006B3237F89F2315058F1102710FB22F96F
:1004900016B3277E79F2012700FB23F92F7C81F226
:1004A00006B3102710FB24F92F7971F200C016B3A0
:1004B000012700FB25F92F7359F200C006B310275E
:1004C00010FB26F9223040F200C016B3012700FBD2
:1004D00027F9243028F64F77206816B30000F9CFAB
:1004E00010E41ABF002719C03B503195C31BD04000
:1004F00010E41ABF0881033CF9F00B34E9F02091B5
:100500007B001981110F1213EDCF4A81441F093668
:1005100041F10D3211F0013E29F7009382003F9125
:100520004F911F910F912F91DF91CAB7C6FD50CF08
:10053000CF91CFBFCF91189500918200002379F31E
:10054000109180001123A1F53430A2F13093800086
:1005500000937C0010917D003BE0311B30937D00C7
:1005600029C00091800001301CF50AE54F7049F464
:100570003091610034FD20C000936100C5E6D0E0F9
:100580001FC03091620034FD17C000936200C0E7C5
:10059000D0E016C0052710E008BB1FC0052722C009
:1005A000052727C005272CC0052710E008BB33C04E
:1005B0004AE503C042ED01C0432FC4E1D0E032E080
:1005C00017B31360C09A08B317BB5F9353E020E8DA
:1005D00020FF052708BB279517951C3FD8F620FF5D
:1005E0000527279508BB17951C3FC0F620FF052758
:1005F0002795179508BB1C3F98F620FF05272795E0
:1006000017951C3F08BB70F600C0499120FF0527D5
:1006100008BB279517951C3F38F620FF052727951F
:1006200008BB17951C3F38F520FF05272795179520
:1006300008BB1C3F10F520FF0527279517951C3F89
:1006400008BBE8F4242F3A9519F60C7F5F9108BB9C
:1006500010918100110FC651D04011F010937B0012
:1006600010E41ABF016017B31C7F402F4C7F08BBFA
:1006700017BB48BB54CF0527D3CF0527D8CF0527B5
:10068000DDCF9C0190911E01961708F4692F961BEF
:1006900090931E01D90120E00CC080911F01E82F2A
:1006A000F0E0E256FF4F90819D938F5F80931F0192
:1006B0002F5F261790F3A99A862F08959C018091A9
:1006C0001E01861708F4682F482F461B40931E0111
:1006D000D90120E00CC080911F01E82FF0E0E25624
:1006E000FF4F9D9190838F5F80931F012F5F26178F
:1006F00090F3442361F4E0911F01F0E0E356FF4FD3
:100700008081853521F481E080939A00A99880E06A
:10071000442309F481E00895FC018181843021F0B3
:10072000853081F080E0089580912101882311F4C3
:1007300088E008951092210110921F018681809314
:100740001E0107C010921F01868180931E0181380F
:1007500010F48FEF089580E880931E018FEF0895C5
:100760001F9310921E0110921F01109222011092ED
:100770009A0081E080939D0010929C0010929B0053
:1007800087E084BB8BEF85BB81BB12BA18BA84E0CB
:1007900088BB8CEF87BBA1D0A998AA98B89A20E013
:1007A00040E757E103C0CA010197F1F72150D9F79B
:1007B000B89888DC789411E0B2DC80919D0081309B
:1007C00019F08230C9F70DC080919A008823A1F3F7
:1007D00010929A0081E07FD0AA9A00000000AA98A7
:1007E000EBCF80919B0090919C00805A9F4158F4E0
:1007F00080912101882369F482E06DD0AA9A0000DB
:100800000000AA9806C010929C0010929B001093C2
:100810009D0080912201803879F680919B00909113
:100820009C0080589F4F90939C0080939B00109257
:10083000220110932101C0CF88B38C6388BB87B39A
:10084000837D87BB8FEF84BB15BAA998A89A0895BA
:1008500081EC8DB91EB808951F920F920FB60F92BA
:1008600011248F939F93EF93FF938FB1823AD9F026
:10087000833A18F4813AD9F405C0843A19F18F3FCC
:10088000B1F405C080919E008FB981E009C08091CC
:100890001F01E82FF0E0E256FF4F90819FB98F5F74
:1008A00080931F010FC082E080939D000BC0809158
:1008B00022019FB1E82FF0E0E256FF4F90838F5F57
:1008C00080932201FF91EF919F918F910F900FBE26
:1008D0000F901F9018958FB90895F89415BE80E871
:1008E00084BF1BBE10922001A7DF81EC8DB91EB81A
:0A08F0008AEF8FB90895F894FFCF46
:0408FA00FF5A5A0047
:00000001FF
