:1000000012C021C020C01FC01EC01DC01CC01BC00C
:100010001AC019C02CC017C016C015C014C013C018
:1000200012C011C010C011241FBECFE5D4E0DEBF46
:10003000CDBF10E0A0E6B0E001C01D92A136B1072F
:10004000E1F73AD044C0DCCF88B38C6388BB87B378
:10005000837D87BB8FEF84BB15BAA998A89A0895B2
:1000600087B38FEF87BB81EC8DB91EB808951F92BF
:100070000F920FB60F9211248F93A99A8FB180938C
:1000800060008F910F900FBE0F901F9018958FB941
:1000900008951FB8779BFECF8FB10895F89415BED1
:1000A00080E884BF1BBED0DF87B38FEF87BB81ECB6
:1000B0008DB91EB878940895F1DF8AEF8FB9A898AA
:1000C00080916000853711F4A898A89AFFCFF89422
:0200D000FFCF60
:00000001FF
